:100000000C945E000C9486000C9486000C94860080
:100010000C9486000C9486000C9486000C94860048
:100020000C9486000C9486000C9486000C94860038
:100030000C9486000C9486000C9486000C94860028
:100040000C947E050C9486000C944C050C942605AB
:100050000C9486000C9486000C9486000C94860008
:100060000C9486000C9486000000000024002700F9
:100070002A0000000008000201000003040700003D
:10008000000000000000010204081020408001026E
:1000900004081020010204081020000000002500C0
:1000A00028002B00040404040404040402020202D5
:1000B0000202030303030303C805C60811241FBE7D
:1000C000CFEFD8E0DEBFCDBF21E0ACE1B1E001C0B1
:1000D0001D92AE3DB207E1F711E0A0E0B1E0E0E52E
:1000E000F7E102C005900D92AC31B107D9F710E0ED
:1000F000CDE5D0E004C02197FE010E947F09CC35F8
:10010000D107C9F70E9466060C949B0B0C94000063
:1001100090E0FC01EE58FF4F2491FC01EA57FF4F9D
:100120003491FC01EC55FF4FE491EE23B9F1222309
:1001300039F1233091F038F42130A9F0223001F563
:1001400084B58F7D12C0273091F02830A1F0243083
:10015000B9F4809180008F7D03C0809180008F77FB
:10016000809380000DC084B58F7784BD09C08091D5
:10017000B0008F7703C08091B0008F7D8093B00076
:10018000F0E0EE0FFF1FE656FF4FA591B4919FB729
:10019000F8948C91309538233C939FBF08958F92AB
:1001A0009F92AF92BF92CF92DF92EF92FF92CF9346
:1001B000DF934B01AA24BB24F82DC52ED62EE72EA3
:1001C000FF24AC2DE42F2091CC01222361F0829EEC
:1001D00040011124F92D2C9D60011124AD2D249F87
:1001E000E0011124ED2F3091D201B091CF01E090C8
:1001F000CD01F090CE013B1308C09C01220F331FAC
:10020000820F931F8E0D9F1D19C0880F991F880F95
:10021000991F8E0D9F1D472F552766277727EC01C5
:10022000C30FD11D222349F030E0249F7001259F88
:10023000F00C349FF00C11244F2D48832091CF01F6
:10024000EC01C20FD11DF8832091D001EC01C20F47
:10025000D11DA8832091D101DC01A20FB11DEC9327
:10026000DF91CF91FF90EF90DF90CF90BF90AF9054
:100270009F908F900895CF92DF92EF92FF920F930D
:100280001F93CF93DF936C017A018B01C0E0D0E024
:10029000CE15DF0581F0D8016D918D01D601ED916C
:1002A000FC910190F081E02DC6010995892B11F098
:1002B0002196EECF7E01C701DF91CF911F910F9163
:1002C000FF90EF90DF90CF900895089580E090E048
:1002D0000895FC01538D448D252F30E0842F90E04C
:1002E000821B930B541710F0CF9608950197089531
:1002F000FC01918D828D981761F0828DDF01A80F2E
:10030000B11D5D968C91928D9F5F9F73928F90E04F
:1003100008958FEF9FEF0895FC01918D828D9817BE
:1003200031F0828DE80FF11D858D90E008958FEFFB
:100330009FEF0895FC01918D228D892F90E0805CC4
:100340009F4F821B91098F739927089588E291E04E
:100350000E949A0121E0892B09F420E0822F089560
:10036000FC01848DDF01A80FB11DA35ABF4F2C9152
:10037000848D90E001968F739927848FA689B78921
:100380002C93A089B1898C91837080648C93938D18
:10039000848D981306C00288F389E02D80818F7DBB
:1003A00080830895EF92FF920F931F93CF93DF9373
:1003B000EC0181E0888F9B8D8C8D981305C0E889B6
:1003C000F989808185FD26C0F62E0B8D10E00F5F28
:1003D0001F4F0F731127E02E8C8DE8120CC00FB643
:1003E00007FCFACFE889F989808185FFF5CFCE0136
:1003F0000E94B001F1CF8B8DFE01E80FF11DE35A91
:10040000FF4FF0829FB7F8940B8FEA89FB898081B8
:1004100080620AC09FB7F894EE89FF896083E889FB
:10042000F98980818370806480839FBF81E090E040
:10043000DF91CF911F910F91FF90EF900895CF938F
:10044000DF93EC01888D8823C9F0EA89FB898081DC
:1004500085FD05C0A889B9898C9186FD0FC00FB6AE
:1004600007FCF5CF808185FFF2CFA889B9898C91EF
:1004700085FFEDCFCE010E94B001E7CFDF91CF9194
:10048000089580E090E0892B29F00E94A601811157
:100490000C9400000895CF93DF9390E0FC01EA579D
:1004A000FF4F2491FC01EC55FF4F8491882361F1AB
:1004B00090E0880F991FFC01E859FF4FC591D49136
:1004C000FC01E656FF4FA591B491611109C09FB799
:1004D000F8948881209582238883EC912E230BC089
:1004E000623061F49FB7F8948881322F309583236E
:1004F0008883EC912E2B2C939FBF06C08FB7F89466
:10050000E8812E2B28838FBFDF91CF9108953FB7CD
:10051000F8948091210190912201A0912301B09142
:10052000240126B5A89B05C02F3F19F00196A11DF7
:10053000B11D3FBFBA2FA92F982F8827820F911D79
:10054000A11DB11DBC01CD0142E0660F771F881FC0
:10055000991F4A95D1F708950F931F93CF93DF9377
:10056000CDB7DEB729970FB6F894DEBF0FBECDBF6B
:100570008091CD019091CE01892B09F4A2C00E94F7
:1005800087020091D3011091D4012091D5013091BF
:10059000D601DC01CB01801B910BA20BB30B8C327B
:1005A0009140A105B10558F3F8948091C90190914B
:1005B000CA019A838983E091CD01F091CE01DF01D8
:1005C0001196808189879091C501E091D701F091C2
:1005D000D8018091D901992309F42EC09081982BDC
:1005E00098879081809589238F838F818C8388E081
:1005F0008B8358856F8149853B812C8189819A81C4
:10060000508347FD252F3A952083262F39F0441F2C
:1006100000C000006083000000C0F2CF38E04D91C0
:1006200060830000019761F7F093D801E093D70150
:1006300049873B832C8338C09081982B9887908181
:10064000809589238F838F818E8388E08D83588561
:100650006F8149853D812E8189819A81508347FD33
:10066000252F00C000C0208300C000C000C000C013
:1006700000C060830000262F3A9541F0441F00001F
:1006800000C000C000C000C000C0E8CF38E04D91FD
:1006900000C0608300C0019709F7F093D801E09390
:1006A000D70149873D832E839A83898378940E945A
:1006B00087026093D3017093D4018093D501909306
:1006C000D60129960FB6F894DEBF0FBECDBFDF91DD
:1006D000CF911F910F9108958F929F92AF92BF92E9
:1006E000CF92DF92EF92FF926B017C010E94870212
:1006F0004B015C01C114D104E104F104F1F00E944A
:100700008702DC01CB0188199909AA09BB09883E37
:100710009340A105B10570F321E0C21AD108E108A8
:10072000F10888EE880E83E0981EA11CB11CC1144C
:10073000D104E104F10419F7DDCFFF90EF90DF90D1
:10074000CF90BF90AF909F908F900895CF92DF92FF
:10075000EF92FF92CF93DF936B017C01C0E0D0E07A
:100760008091C7019091C801C817D90778F4B701E3
:10077000A601CE010E94CF000E94AC026AE070E0A8
:1007800080E090E00E946C032196EACFDF91CF9148
:10079000FF90EF90DF90CF9008950F931F93809577
:1007A000853560F4682F660F860F282F209590E01E
:1007B000A0E0B0E0BC01CD01822B24C08A3A98F4BD
:1007C0008555982F990F980F492F50E060E070E001
:1007D000762F652F542F442790958A019B01092B72
:1007E000C901B8010FC08A5A682F660F860F282FDB
:1007F000209590E0A0E0B0E0DC0199278827BC01BB
:10080000CD01722B1F910F9108958F929F92AF92FD
:10081000BF920F931F93CF93DF93CDB7DEB7A1970E
:100820000FB6F894DEBF0FBECDBF19A2423008F458
:100830004AE08E010F5D1F4F842E912CA12CB12C0C
:10084000A50194010E945D09E62FB901CA0101507A
:100850001109EA3014F4E05D01C0E95CD801EC93C1
:10086000232B242B252B61F70115110571F0F801BD
:1008700001900020E9F73197AF01401B510BB801FF
:1008800088E291E00E943B0102C080E090E0A196E6
:100890000FB6F894DEBF0FBECDBFDF91CF911F9191
:1008A0000F91BF90AF909F908F9008950E946C0B16
:1008B0000F931F93CF93DF93EC0188819981009769
:1008C00029F02A813B812617370788F48B016F5F57
:1008D0007F4F0E94A60A009761F0998388831B834B
:1008E0000A832C813D81232B11F4FC01108281E0CD
:1008F00001C080E0DF91CF911F910F910895EF9299
:10090000FF920F931F93CF93DF93EC017B018A013A
:10091000BA010E9458042881398181110DC0211526
:10092000310519F0C9010E941D0A198218821D8221
:100930001C821B821A8206C01D830C83B701C90169
:100940000E947A0BCE01DF91CF911F910F91FF9002
:10095000EF900895FC011182108213821282158299
:1009600014826115710551F0FB0101900020E9F737
:100970003197AF01461B570B0C947F040895AF923B
:10098000BF92CF92DF92EF92FF920F931F93CF937C
:10099000DF937C015B01EA0169012417350720F42C
:1009A0008D2FE901C42ED82E6AE171E0C7010E94A3
:1009B000AA04D50114960D911C911597C017D10763
:1009C000C8F5C016D10608F48601D501ED91FC9159
:1009D0001197E00FF11FD08010826D917C916C0F08
:1009E0007D1F6115710561F0FB0101900020E9F7A1
:1009F0003197AF01461B570BC7010E947F0413C0FC
:100A0000F70180819181009711F00E941D0AD701A2
:100A100011961C921E9215961C921E921497139674
:100A20001C921E921297F50180819181FC01E00FCA
:100A3000F11FD082C701DF91CF911F910F91FF90DD
:100A4000EF90DF90CF90BF90AF9008951F920F92DC
:100A50000FB60F9211242F933F934F935F936F9391
:100A60007F938F939F93AF93BF93EF93FF9388E20E
:100A700091E00E94B001FF91EF91BF91AF919F91E2
:100A80008F917F916F915F914F913F912F910F9037
:100A90000FBE0F901F9018951F920F920FB60F92D6
:100AA00011242F938F939F93EF93FF93E09138013D
:100AB000F09139018081E0913E01F0913F0182FD8A
:100AC00012C09081809141018F5F8F73209142010C
:100AD000821751F0E0914101F0E0E85DFE4F958F03
:100AE0008093410101C08081FF91EF919F918F918F
:100AF0002F910F900FBE0F901F9018951F920F927D
:100B00000FB60F9211242F933F938F939F93AF9320
:100B1000BF9380911D0190911E01A0911F01B09182
:100B2000200130911C0123E0230F2D3720F4019682
:100B3000A11DB11D05C026E8230F0296A11DB11D00
:100B400020931C0180931D0190931E01A0931F010F
:100B5000B09320018091210190912201A091230165
:100B6000B09124010196A11DB11D809321019093A4
:100B70002201A0932301B0932401BF91AF919F91D3
:100B80008F913F912F910F900FBE0F901F9018954E
:100B900010922B0110922A0188EE93E0A0E0B0E0C1
:100BA00080932C0190932D01A0932E01B0932F01DF
:100BB0008BE091E0909329018093280185EC90E0EF
:100BC000909335018093340184EC90E09093370149
:100BD0008093360180EC90E0909339018093380146
:100BE00081EC90E090933B0180933A0182EC90E09D
:100BF00090933D0180933C0186EC90E090933F01FF
:100C000080933E01109241011092420110924301E3
:100C1000109244011092C6011092CC011092D3019F
:100C20001092D4011092D5011092D60181E08093E8
:100C3000D2018093CF011092D00192E09093D10124
:100C40008093C50181EE90E09093CA018093C90121
:100C50000E9485099093CE018093CD01009761F0A9
:100C600021EEFC0111922A95E9F78BE490E0909334
:100C7000C8018093C70108C01092CA011092C9012F
:100C80001092C8011092C70182E08093CB0180913D
:100C9000C601882339F061E082E00E944B0282E0C5
:100CA0000E948800E6EAF0E0E491F0E0EE0FFF1F1A
:100CB000E656FF4F859194919093D8018093D70188
:100CC000E8E8F0E0E491E093D9010895CF93DF9351
:100CD000CDB7DEB72C970FB6F894DEBF0FBECDBFF1
:100CE000789484B5826084BD84B5816084BD85B507
:100CF000826085BD85B5816085BD80916E00816013
:100D000080936E00109281008091810082608093B8
:100D100081008091810081608093810080918000BA
:100D20008160809380008091B10084608093B100E5
:100D30008091B00081608093B00080917A008460DF
:100D400080937A0080917A00826080937A0080910B
:100D50007A00816080937A0080917A008068809325
:100D60007A001092C10061E08DE00E944B028091F8
:100D7000CB0187FD07C061E00E944B028091CB014F
:100D80000E94880081E08093C6010E94AC02E0913D
:100D90003801F091390182E08083E0913401F091D3
:100DA00035011082E0913601F091370180E18083B6
:100DB00010924001E0913C01F0913D0186E080837A
:100DC000E0913A01F0913B01808180618083E09164
:100DD0003A01F0913B01808188608083E0913A0183
:100DE000F0913B01808180688083E0913A01F0912D
:100DF0003B0180818F7D808361E082E10E944B0214
:100E000061E083E00E944B0261E084E00E944B02BB
:100E100061E085E00E944B0261E086E00E944B02A7
:100E200061E087E00E944B0261E088E00E944B0293
:100E300056E4F52E88E291E00E949A01892B09F48C
:100E400019C188E291E00E9478019FEB980F9630DB
:100E500060F480930001682F88E291E00E94D20143
:100E600088E291E00E941F02E5CF873419F76AE11A
:100E700071E0CE0107960E94AA0488E291E00E94E8
:100E80009A01892BF9F088E291E00E947801898328
:100E90001A820B851C850F5F1F4FB801CE01079684
:100EA0000E945804882349F32F8138858B859C85BF
:100EB000BE016F5F7F4F820F931F0E947A0B1C87CA
:100EC0000B87DBCF69E171E0CE0101960E94AA0495
:100ED0008B859C8509811A81892B61F0AF80B8844C
:100EE000B801C5010E94810B009721F06C01CA185E
:100EF000DB0803C0CC24CA94DC2CC8010E941D0A64
:100F000069E171E0CE0101960E94AA048B859C855F
:100F10002D813E818C01021B130BA980BA80211503
:100F2000310539F1009729F18217930710F108175D
:100F3000190718F08C01015011096F807884C301E2
:100F400055245A94EE24EA944301800E911E88168B
:100F5000990690F0B5010E94810B009769F09C0101
:100F6000261937090217130710F0522EE32E0196A7
:100F7000EECF0FEF1FEF02C0052D1E2DC5010E9401
:100F80001D0A960140E050E0BE01695F7F4FCE012F
:100F900001960E94BF04A980BA80A114B10421F077
:100FA000C5010E94D60801C060E060932701C50119
:100FB0000E941D0AA6014F5F5F4F9801BE01695F45
:100FC0007F4FCE0101960E94BF04C980DA80C11410
:100FD000D10421F0C6010E94D60801C060E06093F0
:100FE0002601C6010E941D0A2B853C85A8014F5F82
:100FF0005F4FBE01695F7F4FCE0101960E94BF0423
:1010000009811A810115110521F0C8010E94D60835
:1010100001C060E060932501C8010E941D0AF092A2
:10102000000141E050E069E171E088E291E00E9456
:101030003B016091270170E080E090E04AE00E946F
:1010400005046091260170E080E090E04AE00E9493
:1010500005046091250170E080E090E04AE00E9484
:10106000050488E291E00E941F028F8198850E940A
:101070001D0AE0CE80910001833451F154F4813493
:1010800011F1823409F07FC060E07FEF80E090E0F2
:1010900078C0853409F448C004F1863409F073C07F
:1010A0002091270160912601862F90E0A0E0B0E01A
:1010B000BA2FA92F982F8827A22B20912501BC0198
:1010C000CD01622B5EC060E070E08FEF90E059C010
:1010D0006FEF70E080E090E054C0C12CD12C00E0B4
:1010E00010E08091C7019091C8010817190760F4BA
:1010F000802F8C0D0E94CD03AB01BC01C8010E9462
:10110000CF000F5F1F4FEDCF0E94AC026AE070E08E
:1011100080E090E00E946C038FEFC81AD80AC114D7
:1011200081E0D806E1F62FC000E010E0A12CB12C40
:10113000C12CD12C6091C7017091C801C616D70689
:1011400088F4C5010E944909862F800F0E94CD03B3
:10115000AB01BC01C6010E94CF008FEFC81AD80AAC
:10116000B394E8CF0E94AC026AE070E080E090E0C7
:101170000E946C030F5F1F4F011585E01807B1F641
:1011800002C00E94A6030E94410254CE8091CD016C
:101190009091CE01009711F00E941D0A8091CB0121
:1011A00087FD03C060E00C944B0208951F93FC017F
:1011B00099278827BC01E89411911032E9F319307E
:1011C00010F01E30C8F31B3251F01D3249F4689400
:1011D00006C00E94FD08610F711D811D911D1191B6
:1011E00010531A30B0F33EF4909580957095619548
:1011F0007F4F8F4F9F4F1F910895592F482F372FA3
:10120000262F660F771F881F991F660F771F881F6D
:10121000991F620F731F841F951F660F771F881F0A
:10122000991F08952F923F924F925F926F927F92F3
:101230008F929F92AF92BF92CF92DF92EF92FF92E6
:101240000F931F93CF93DF93CDB7DEB7CA1BDB0B92
:101250000FB6F894DEBF0FBECDBF09942A88398837
:1012600048885F846E847D848C849B84AA84B9843E
:10127000C884DF80EE80FD800C811B81AA81B9814A
:10128000CE0FD11D0FB6F894DEBF0FBECDBFED015E
:101290000895AA1BBB1B51E107C0AA1FBB1FA617BD
:1012A000B70710F0A61BB70B881F991F5A95A9F70F
:1012B00080959095BC01CD010895A1E21A2EAA1B3C
:1012C000BB1BFD010DC0AA1FBB1FEE1FFF1FA217F6
:1012D000B307E407F50720F0A21BB30BE40BF50BF3
:1012E000661F771F881F991F1A9469F7609570957C
:1012F000809590959B01AC01BD01CF010895EE0F43
:10130000FF1F0590F491E02D09940F931F93CF9345
:10131000DF938230910510F482E090E0E091DC01EF
:10132000F091DD0120E030E0A0E0B0E0309719F16D
:10133000408151810281138148175907C8F08417F1
:10134000950769F4109731F012960C931297139643
:101350001C9327C00093DC011093DD0122C02115EE
:10136000310519F04217530718F49A01BD01EF0136
:10137000DF01F801DBCF21153105F9F0281B390B0E
:101380002430310580F48A819B816115710521F03B
:10139000FB019383828304C09093DD018093DC0181
:1013A000FE01329644C0FE01E20FF31F8193919338
:1013B00022503109398328833AC02091DA013091D3
:1013C000DB01232B41F42091030130910401309380
:1013D000DB012093DA0120910101309102012115F6
:1013E000310541F42DB73EB74091050150910601FA
:1013F000241B350BE091DA01F091DB01E217F307D2
:10140000A0F42E1B3F0B2817390778F0AC014E5F74
:101410005F4F2417350748F04E0F5F1F5093DB01D5
:101420004093DA018193919302C0E0E0F0E0CF01B4
:10143000DF91CF911F910F910895CF93DF93009784
:1014400009F481C0FC01329713821282A091DC0161
:10145000B091DD01109781F420813181820F931FBB
:101460002091DA013091DB012817390751F5F0930B
:10147000DB01E093DA0167C0ED0120E030E0CE1738
:10148000DF0740F44A815B819E0141155105F1F06F
:10149000EA01F5CFD383C28340815181840F951F28
:1014A000C817D90759F488819981840F951F02962E
:1014B000918380838A819B81938382832115310567
:1014C00029F4F093DD01E093DC013DC0E901FB83E9
:1014D000EA8349915991C40FD51FEC17FD0761F4B8
:1014E00080819181840F951F0296E90199838883F9
:1014F000828193819B838A83E0E0F0E012968D9154
:101500009C911397009719F0FD01DC01F7CF8D91A5
:101510009C9111979D012E5F3F4F820F931F209149
:10152000DA013091DB012817390769F4309729F483
:101530001092DD011092DC0102C013821282B0937E
:10154000DB01A093DA01DF91CF910895A0E0B0E034
:10155000ECEAFAE00C941609EC01009721F4CB01B7
:101560000E948509B4C0FC01E60FF71F9C012250C0
:101570003109E217F30708F4A8C0D9010D911C91B5
:10158000119706171707B0F00530110508F49BC036
:10159000C80104978617970708F495C002501109EF
:1015A000061B170B019311936D937C93CF010E943F
:1015B0001D0A89C05B01A01AB10A4C01800E911E60
:1015C000A091DC01B091DD01612C712CE12CF12C9A
:1015D000109709F446C08D919C911197A815B905F3
:1015E000B1F56C0142E0C40ED11CCA14DB0478F1E1
:1015F0004C018A189B08640142E0C40ED11C12966B
:10160000BC9012971396AC91B5E0CB16D10440F084
:10161000B282A38391828082D9016D937C9309C0A9
:101620000E5F1F4F800F911FF90191838083EB2D77
:10163000FA2FE114F10431F0D7011396FC93EE93E5
:10164000129741C0F093DD01E093DC013CC06816C5
:10165000790608F43C017D0112960D90BC91A02DF5
:10166000B7CF8091DA019091DB0188169906E1F4F9
:1016700066167706C8F480910101909102010097E7
:1016800041F48DB79EB74091050150910601841B2E
:10169000950BE817F907C8F4F093DB01E093DA0142
:1016A000F901718360830FC0CB010E9485097C0121
:1016B000009759F0A801BE010E94710BCE010E9453
:1016C0001D0AC70104C0CE0102C080E090E0CDB782
:1016D000DEB7EEE00C94320981E090E0F8940C94CF
:1016E0009B0BFB01DC0102C001900D924150504068
:1016F000D8F70895FB01DC0101900D920020E1F77D
:101700000895FB0151915523A9F0BF01DC014D91D2
:1017100045174111E1F759F4CD010190002049F03E
:101720004D9140154111C9F3FB014111EFCF81E00B
:1017300090E00197089510E0CDE5D0E004C0FE01EF
:101740000E947F092196CE35D107C9F7F894FFCFC3
:10175000410000DE01800000000000D2013B016971
:0C176000011F029A0178018C0147000073
:107E0000112484B714BE81FFF0D085E080938100F7
:107E100082E08093C00088E18093C10086E0809377
:107E2000C20080E18093C4008EE0C9D0259A86E02C
:107E300020E33CEF91E0309385002093840096BBD3
:107E4000B09BFECF1D9AA8958150A9F7CC24DD24C4
:107E500088248394B5E0AB2EA1E19A2EF3E0BF2EE7
:107E6000A2D0813461F49FD0082FAFD0023811F036
:107E7000013811F484E001C083E08DD089C08234E0
:107E800011F484E103C0853419F485E0A6D080C0E4
:107E9000853579F488D0E82EFF2485D0082F10E0AE
:107EA000102F00270E291F29000F111F8ED06801E7
:107EB0006FC0863521F484E090D080E0DECF843638
:107EC00009F040C070D06FD0082F6DD080E0C81688
:107ED00080E7D80618F4F601B7BEE895C0E0D1E017
:107EE00062D089930C17E1F7F0E0CF16F0E7DF06D8
:107EF00018F0F601B7BEE89568D007B600FCFDCFD4
:107F0000A601A0E0B1E02C9130E011968C91119780
:107F100090E0982F8827822B932B1296FA010C0160
:107F200087BEE89511244E5F5F4FF1E0A038BF0790
:107F300051F7F601A7BEE89507B600FCFDCF97BE46
:107F4000E89526C08437B1F42ED02DD0F82E2BD052
:107F50003CD0F601EF2C8F010F5F1F4F84911BD097
:107F6000EA94F801C1F70894C11CD11CFA94CF0C13
:107F7000D11C0EC0853739F428D08EE10CD085E9AC
:107F80000AD08FE07ACF813511F488E018D01DD067
:107F900080E101D065CF982F8091C00085FFFCCF94
:107FA0009093C60008958091C00087FFFCCF809118
:107FB000C00084FD01C0A8958091C6000895E0E648
:107FC000F0E098E1908380830895EDDF803219F02E
:107FD00088E0F5DFFFCF84E1DECF1F93182FE3DFCA
:107FE0001150E9F7F2DF1F91089580E0E8DFEE27F6
:047FF000FF270994CA
:027FFE00040479
:0400000300007E007B
:00000001FF
